{
  "contractName": "Vesting_Factory",
  "abi": [
    {
      "constant": true,
      "inputs": [],
      "name": "vesting_implementation",
      "outputs": [
        {
          "name": "",
          "type": "address"
        }
      ],
      "payable": false,
      "stateMutability": "view",
      "type": "function"
    },
    {
      "constant": true,
      "inputs": [
        {
          "name": "",
          "type": "uint256"
        }
      ],
      "name": "vestingProxies",
      "outputs": [
        {
          "name": "",
          "type": "address"
        }
      ],
      "payable": false,
      "stateMutability": "view",
      "type": "function"
    },
    {
      "inputs": [
        {
          "name": "_vesting_implementation",
          "type": "address"
        }
      ],
      "payable": false,
      "stateMutability": "nonpayable",
      "type": "constructor"
    },
    {
      "anonymous": false,
      "inputs": [
        {
          "indexed": false,
          "name": "proxy",
          "type": "address"
        }
      ],
      "name": "ProxyCreated",
      "type": "event"
    },
    {
      "constant": false,
      "inputs": [
        {
          "name": "_data",
          "type": "bytes"
        }
      ],
      "name": "newVesting",
      "outputs": [
        {
          "name": "proxy",
          "type": "address"
        },
        {
          "name": "data",
          "type": "bytes"
        }
      ],
      "payable": false,
      "stateMutability": "nonpayable",
      "type": "function"
    },
    {
      "constant": false,
      "inputs": [
        {
          "name": "_logic",
          "type": "address"
        },
        {
          "name": "_data",
          "type": "bytes"
        }
      ],
      "name": "deployMinimal",
      "outputs": [
        {
          "name": "proxy",
          "type": "address"
        },
        {
          "name": "data",
          "type": "bytes"
        }
      ],
      "payable": false,
      "stateMutability": "nonpayable",
      "type": "function"
    }
  ],
  "bytecode": "0x608060405234801561001057600080fd5b506040516020806107278339810180604052602081101561003057600080fd5b8101908080519060200190929190505050806000806101000a81548173ffffffffffffffffffffffffffffffffffffffff021916908373ffffffffffffffffffffffffffffffffffffffff16021790555050610696806100916000396000f3fe608060405234801561001057600080fd5b5060043610610069576000357c0100000000000000000000000000000000000000000000000000000000900480637025ee551461006e578063b3eeb5e2146100b8578063ba7c2bcc1461023f578063d5992adc14610364575b600080fd5b6100766103d2565b604051808273ffffffffffffffffffffffffffffffffffffffff1673ffffffffffffffffffffffffffffffffffffffff16815260200191505060405180910390f35b610191600480360360408110156100ce57600080fd5b81019080803573ffffffffffffffffffffffffffffffffffffffff1690602001909291908035906020019064010000000081111561010b57600080fd5b82018360208201111561011d57600080fd5b8035906020019184600183028401116401000000008311171561013f57600080fd5b91908080601f016020809104026020016040519081016040528093929190818152602001838380828437600081840152601f19601f8201169050808301925050505050505091929192905050506103f7565b604051808373ffffffffffffffffffffffffffffffffffffffff1673ffffffffffffffffffffffffffffffffffffffff16815260200180602001828103825283818151815260200191508051906020019080838360005b838110156102035780820151818401526020810190506101e8565b50505050905090810190601f1680156102305780820380516001836020036101000a031916815260200191505b50935050505060405180910390f35b6102b66004803603602081101561025557600080fd5b810190808035906020019064010000000081111561027257600080fd5b82018360208201111561028457600080fd5b803590602001918460018302840111640100000000831117156102a657600080fd5b90919293919293905050506105aa565b604051808373ffffffffffffffffffffffffffffffffffffffff1673ffffffffffffffffffffffffffffffffffffffff16815260200180602001828103825283818151815260200191508051906020019080838360005b8381101561032857808201518184015260208101905061030d565b50505050905090810190601f1680156103555780820380516001836020036101000a031916815260200191505b50935050505060405180910390f35b6103906004803603602081101561037a57600080fd5b810190808035906020019092919050505061062c565b604051808273ffffffffffffffffffffffffffffffffffffffff1673ffffffffffffffffffffffffffffffffffffffff16815260200191505060405180910390f35b6000809054906101000a900473ffffffffffffffffffffffffffffffffffffffff1681565b600060606000846c010000000000000000000000000290506040517f3d602d80600a3d3981f3363d3d373d3d3d363d7300000000000000000000000081528160148201527f5af43d82803e903d91602b57fd5bf3000000000000000000000000000000000060288201526037816000f09350507efffc2da0b561cae30d9826d37709e9421c4725faebc226cbbb7ef5fc5e734983604051808273ffffffffffffffffffffffffffffffffffffffff1673ffffffffffffffffffffffffffffffffffffffff16815260200191505060405180910390a16000845111156105a257600060608473ffffffffffffffffffffffffffffffffffffffff16866040518082805190602001908083835b6020831015156105275780518252602082019150602081019050602083039250610502565b6001836020036101000a0380198251168184511680821785525050505050509050019150506000604051808303816000865af19150503d8060008114610589576040519150601f19603f3d011682016040523d82523d6000602084013e61058e565b606091505b509150915081151561059f57600080fd5b50505b509250929050565b6000606061061d6000809054906101000a900473ffffffffffffffffffffffffffffffffffffffff1685858080601f016020809104026020016040519081016040528093929190818152602001838380828437600081840152601f19601f820116905080830192505050505050506103f7565b80925081935050509250929050565b60018181548110151561063b57fe5b906000526020600020016000915054906101000a900473ffffffffffffffffffffffffffffffffffffffff168156fea165627a7a723058204a63b7840be51ee266cd9d41f9fe7d8ee6548e56958ec3c302516f1c1bad8dd10029",
  "source": "// SPDX-License-Identifier: MIT\npragma solidity ^0.5.3;\n\n// import './Vesting.sol';\n// import '@openzeppelin/upgrades/contracts/upgradeability/ProxyFactory.sol';\n\ncontract Vesting_Factory {\n    // string[] allocationType = ['seed', 'strategic', 'private', 'auction'];\n    address public vesting_implementation;\n    address[] public vestingProxies;\n\n    event ProxyCreated(address proxy);\n\n    constructor(address _vesting_implementation) public {\n        vesting_implementation = _vesting_implementation;\n    }\n\n    function newVesting(bytes calldata _data) external returns (address proxy, bytes memory data) {\n        (proxy, data) = deployMinimal(vesting_implementation, _data);\n        // vestingProxies.push(proxy);\n    }\n\n    function deployMinimal(address _logic, bytes memory _data) public returns (address proxy, bytes memory data) {\n        bytes20 targetBytes = bytes20(_logic);\n        assembly {\n            let clone := mload(0x40)\n            mstore(clone, 0x3d602d80600a3d3981f3363d3d373d3d3d363d73000000000000000000000000)\n            mstore(add(clone, 0x14), targetBytes)\n            mstore(add(clone, 0x28), 0x5af43d82803e903d91602b57fd5bf30000000000000000000000000000000000)\n            proxy := create(0, clone, 0x37)\n        }\n        \n        emit ProxyCreated(address(proxy));\n\n        if(_data.length > 0) {\n            (bool success, bytes memory data) = proxy.call(_data);\n            require(success);\n        }\n    }\n}",
  "sourcePath": "/Users/godambe/dhruv1584/finaxis/Vesting-schedule/contracts/Vesting_Factory.sol",
  "compiler": {
    "name": "solc",
    "version": "0.5.3+commit.10d17f24.Emscripten.clang"
  },
  "schemaVersion": "3.3.4",
  "updatedAt": "2021-06-28T11:02:43.645Z",
  "networkType": "ethereum",
  "devdoc": {
    "methods": {}
  },
  "userdoc": {
    "methods": {}
  }
}