{
  "contractName": "Vesting",
  "abi": [
    {
      "anonymous": false,
      "inputs": [
        {
          "indexed": true,
          "internalType": "address",
          "name": "previousOwner",
          "type": "address"
        },
        {
          "indexed": true,
          "internalType": "address",
          "name": "newOwner",
          "type": "address"
        }
      ],
      "name": "OwnershipTransferred",
      "type": "event"
    },
    {
      "anonymous": false,
      "inputs": [
        {
          "indexed": false,
          "internalType": "address",
          "name": "token",
          "type": "address"
        }
      ],
      "name": "TokenVestingRevoked",
      "type": "event"
    },
    {
      "anonymous": false,
      "inputs": [
        {
          "indexed": false,
          "internalType": "address",
          "name": "token",
          "type": "address"
        },
        {
          "indexed": false,
          "internalType": "uint256",
          "name": "amount",
          "type": "uint256"
        }
      ],
      "name": "TokensReleased",
      "type": "event"
    },
    {
      "constant": true,
      "inputs": [],
      "name": "isOwner",
      "outputs": [
        {
          "internalType": "bool",
          "name": "",
          "type": "bool"
        }
      ],
      "payable": false,
      "stateMutability": "view",
      "type": "function"
    },
    {
      "constant": true,
      "inputs": [],
      "name": "owner",
      "outputs": [
        {
          "internalType": "address",
          "name": "",
          "type": "address"
        }
      ],
      "payable": false,
      "stateMutability": "view",
      "type": "function"
    },
    {
      "constant": false,
      "inputs": [],
      "name": "renounceOwnership",
      "outputs": [],
      "payable": false,
      "stateMutability": "nonpayable",
      "type": "function"
    },
    {
      "constant": false,
      "inputs": [
        {
          "internalType": "address",
          "name": "newOwner",
          "type": "address"
        }
      ],
      "name": "transferOwnership",
      "outputs": [],
      "payable": false,
      "stateMutability": "nonpayable",
      "type": "function"
    },
    {
      "constant": false,
      "inputs": [
        {
          "internalType": "address",
          "name": "beneficiary",
          "type": "address"
        },
        {
          "internalType": "uint256",
          "name": "start",
          "type": "uint256"
        },
        {
          "internalType": "uint256",
          "name": "cliffDuration",
          "type": "uint256"
        },
        {
          "internalType": "uint256",
          "name": "duration",
          "type": "uint256"
        },
        {
          "internalType": "bool",
          "name": "revocable",
          "type": "bool"
        }
      ],
      "name": "initialize",
      "outputs": [],
      "payable": false,
      "stateMutability": "nonpayable",
      "type": "function"
    },
    {
      "constant": true,
      "inputs": [],
      "name": "beneficiary",
      "outputs": [
        {
          "internalType": "address",
          "name": "",
          "type": "address"
        }
      ],
      "payable": false,
      "stateMutability": "view",
      "type": "function"
    },
    {
      "constant": true,
      "inputs": [],
      "name": "cliff",
      "outputs": [
        {
          "internalType": "uint256",
          "name": "",
          "type": "uint256"
        }
      ],
      "payable": false,
      "stateMutability": "view",
      "type": "function"
    },
    {
      "constant": true,
      "inputs": [],
      "name": "start",
      "outputs": [
        {
          "internalType": "uint256",
          "name": "",
          "type": "uint256"
        }
      ],
      "payable": false,
      "stateMutability": "view",
      "type": "function"
    },
    {
      "constant": true,
      "inputs": [],
      "name": "duration",
      "outputs": [
        {
          "internalType": "uint256",
          "name": "",
          "type": "uint256"
        }
      ],
      "payable": false,
      "stateMutability": "view",
      "type": "function"
    },
    {
      "constant": true,
      "inputs": [],
      "name": "revocable",
      "outputs": [
        {
          "internalType": "bool",
          "name": "",
          "type": "bool"
        }
      ],
      "payable": false,
      "stateMutability": "view",
      "type": "function"
    },
    {
      "constant": true,
      "inputs": [
        {
          "internalType": "address",
          "name": "token",
          "type": "address"
        }
      ],
      "name": "released",
      "outputs": [
        {
          "internalType": "uint256",
          "name": "",
          "type": "uint256"
        }
      ],
      "payable": false,
      "stateMutability": "view",
      "type": "function"
    },
    {
      "constant": true,
      "inputs": [
        {
          "internalType": "address",
          "name": "token",
          "type": "address"
        }
      ],
      "name": "revoked",
      "outputs": [
        {
          "internalType": "bool",
          "name": "",
          "type": "bool"
        }
      ],
      "payable": false,
      "stateMutability": "view",
      "type": "function"
    },
    {
      "constant": false,
      "inputs": [
        {
          "internalType": "contract IERC20",
          "name": "token",
          "type": "address"
        }
      ],
      "name": "release",
      "outputs": [],
      "payable": false,
      "stateMutability": "nonpayable",
      "type": "function"
    },
    {
      "constant": false,
      "inputs": [
        {
          "internalType": "contract IERC20",
          "name": "token",
          "type": "address"
        }
      ],
      "name": "revoke",
      "outputs": [],
      "payable": false,
      "stateMutability": "nonpayable",
      "type": "function"
    }
  ],
  "bytecode": "0x608060405260006100146100b860201b60201c565b905080603360006101000a81548173ffffffffffffffffffffffffffffffffffffffff021916908373ffffffffffffffffffffffffffffffffffffffff1602179055508073ffffffffffffffffffffffffffffffffffffffff16600073ffffffffffffffffffffffffffffffffffffffff167f8be0079c531659141344cd1fd0a4f28419497f9722a3daafe3b4186f6b6457e060405160405180910390a3506100c0565b600033905090565b611bab806100cf6000396000f3fe608060405234801561001057600080fd5b50600436106100ea5760003560e01c80638da5cb5b1161008c5780639a63adc0116100665780639a63adc0146102ed578063be9a65551461035b578063f2fde38b14610379578063fa01dc06146103bd576100ea565b80638da5cb5b146102295780638f32d59b146102735780639852595c14610295576100ea565b806338af3eed116100c857806338af3eed1461016f578063715018a6146101b957806374a8f103146101c3578063872a781014610207576100ea565b80630fb5a6b4146100ef57806313d033c01461010d578063191655871461012b575b600080fd5b6100f7610419565b6040518082815260200191505060405180910390f35b610115610423565b6040518082815260200191505060405180910390f35b61016d6004803603602081101561014157600080fd5b81019080803573ffffffffffffffffffffffffffffffffffffffff16906020019092919050505061042d565b005b610177610601565b604051808273ffffffffffffffffffffffffffffffffffffffff1673ffffffffffffffffffffffffffffffffffffffff16815260200191505060405180910390f35b6101c161062b565b005b610205600480360360208110156101d957600080fd5b81019080803573ffffffffffffffffffffffffffffffffffffffff169060200190929190505050610766565b005b61020f610ad8565b604051808215151515815260200191505060405180910390f35b610231610aef565b604051808273ffffffffffffffffffffffffffffffffffffffff1673ffffffffffffffffffffffffffffffffffffffff16815260200191505060405180910390f35b61027b610b19565b604051808215151515815260200191505060405180910390f35b6102d7600480360360208110156102ab57600080fd5b81019080803573ffffffffffffffffffffffffffffffffffffffff169060200190929190505050610b78565b6040518082815260200191505060405180910390f35b610359600480360360a081101561030357600080fd5b81019080803573ffffffffffffffffffffffffffffffffffffffff169060200190929190803590602001909291908035906020019092919080359060200190929190803515159060200190929190505050610bc1565b005b610363610f06565b6040518082815260200191505060405180910390f35b6103bb6004803603602081101561038f57600080fd5b81019080803573ffffffffffffffffffffffffffffffffffffffff169060200190929190505050610f10565b005b6103ff600480360360208110156103d357600080fd5b81019080803573ffffffffffffffffffffffffffffffffffffffff169060200190929190505050610f96565b604051808215151515815260200191505060405180910390f35b6000603754905090565b6000603554905090565b600061043882610fec565b9050600081116104b0576040517f08c379a000000000000000000000000000000000000000000000000000000000815260040180806020018281038252601f8152602001807f546f6b656e56657374696e673a206e6f20746f6b656e7320617265206475650081525060200191505060405180910390fd5b61050281603960008573ffffffffffffffffffffffffffffffffffffffff1673ffffffffffffffffffffffffffffffffffffffff1681526020019081526020016000205461104f90919063ffffffff16565b603960008473ffffffffffffffffffffffffffffffffffffffff1673ffffffffffffffffffffffffffffffffffffffff16815260200190815260200160002081905550610592603460009054906101000a900473ffffffffffffffffffffffffffffffffffffffff16828473ffffffffffffffffffffffffffffffffffffffff166110d79092919063ffffffff16565b7fc7798891864187665ac6dd119286e44ec13f014527aeeb2b8eb3fd413df931798282604051808373ffffffffffffffffffffffffffffffffffffffff1673ffffffffffffffffffffffffffffffffffffffff1681526020018281526020019250505060405180910390a15050565b6000603460009054906101000a900473ffffffffffffffffffffffffffffffffffffffff16905090565b610633610b19565b6106a5576040517f08c379a00000000000000000000000000000000000000000000000000000000081526004018080602001828103825260208152602001807f4f776e61626c653a2063616c6c6572206973206e6f7420746865206f776e657281525060200191505060405180910390fd5b600073ffffffffffffffffffffffffffffffffffffffff16603360009054906101000a900473ffffffffffffffffffffffffffffffffffffffff1673ffffffffffffffffffffffffffffffffffffffff167f8be0079c531659141344cd1fd0a4f28419497f9722a3daafe3b4186f6b6457e060405160405180910390a36000603360006101000a81548173ffffffffffffffffffffffffffffffffffffffff021916908373ffffffffffffffffffffffffffffffffffffffff160217905550565b61076e610b19565b6107e0576040517f08c379a00000000000000000000000000000000000000000000000000000000081526004018080602001828103825260208152602001807f4f776e61626c653a2063616c6c6572206973206e6f7420746865206f776e657281525060200191505060405180910390fd5b603860009054906101000a900460ff16610862576040517f08c379a000000000000000000000000000000000000000000000000000000000815260040180806020018281038252601b8152602001807f546f6b656e56657374696e673a2063616e6e6f74207265766f6b65000000000081525060200191505060405180910390fd5b603a60008273ffffffffffffffffffffffffffffffffffffffff1673ffffffffffffffffffffffffffffffffffffffff16815260200190815260200160002060009054906101000a900460ff1615610905576040517f08c379a0000000000000000000000000000000000000000000000000000000008152600401808060200182810382526023815260200180611b546023913960400191505060405180910390fd5b60008173ffffffffffffffffffffffffffffffffffffffff166370a08231306040518263ffffffff1660e01b8152600401808273ffffffffffffffffffffffffffffffffffffffff1673ffffffffffffffffffffffffffffffffffffffff16815260200191505060206040518083038186803b15801561098457600080fd5b505afa158015610998573d6000803e3d6000fd5b505050506040513d60208110156109ae57600080fd5b8101908080519060200190929190505050905060006109cc83610fec565b905060006109e382846111a890919063ffffffff16565b90506001603a60008673ffffffffffffffffffffffffffffffffffffffff1673ffffffffffffffffffffffffffffffffffffffff16815260200190815260200160002060006101000a81548160ff021916908315150217905550610a6f610a48610aef565b828673ffffffffffffffffffffffffffffffffffffffff166110d79092919063ffffffff16565b7f39983c6d4d174a7aee564f449d4a5c3c7ac9649d72b7793c56901183996f8af684604051808273ffffffffffffffffffffffffffffffffffffffff1673ffffffffffffffffffffffffffffffffffffffff16815260200191505060405180910390a150505050565b6000603860009054906101000a900460ff16905090565b6000603360009054906101000a900473ffffffffffffffffffffffffffffffffffffffff16905090565b6000603360009054906101000a900473ffffffffffffffffffffffffffffffffffffffff1673ffffffffffffffffffffffffffffffffffffffff16610b5c6111f2565b73ffffffffffffffffffffffffffffffffffffffff1614905090565b6000603960008373ffffffffffffffffffffffffffffffffffffffff1673ffffffffffffffffffffffffffffffffffffffff168152602001908152602001600020549050919050565b600060019054906101000a900460ff1680610be05750610bdf6111fa565b5b80610bf757506000809054906101000a900460ff16155b610c4c576040517f08c379a000000000000000000000000000000000000000000000000000000000815260040180806020018281038252602e815260200180611afc602e913960400191505060405180910390fd5b60008060019054906101000a900460ff161590508015610c9c576001600060016101000a81548160ff02191690831515021790555060016000806101000a81548160ff0219169083151502179055505b600073ffffffffffffffffffffffffffffffffffffffff168673ffffffffffffffffffffffffffffffffffffffff161415610d22576040517f08c379a000000000000000000000000000000000000000000000000000000000815260040180806020018281038252602d815260200180611a5d602d913960400191505060405180910390fd5b82841115610d7b576040517f08c379a000000000000000000000000000000000000000000000000000000000815260040180806020018281038252602b815260200180611ab0602b913960400191505060405180910390fd5b60008311610df1576040517f08c379a000000000000000000000000000000000000000000000000000000000815260040180806020018281038252601b8152602001807f546f6b656e56657374696e673a206475726174696f6e2069732030000000000081525060200191505060405180910390fd5b42610e05848761104f90919063ffffffff16565b11610e5b576040517f08c379a000000000000000000000000000000000000000000000000000000000815260040180806020018281038252602f815260200180611a2e602f913960400191505060405180910390fd5b85603460006101000a81548173ffffffffffffffffffffffffffffffffffffffff021916908373ffffffffffffffffffffffffffffffffffffffff16021790555081603860006101000a81548160ff02191690831515021790555082603781905550610ed0848661104f90919063ffffffff16565b603581905550846036819055508015610efe5760008060016101000a81548160ff0219169083151502179055505b505050505050565b6000603654905090565b610f18610b19565b610f8a576040517f08c379a00000000000000000000000000000000000000000000000000000000081526004018080602001828103825260208152602001807f4f776e61626c653a2063616c6c6572206973206e6f7420746865206f776e657281525060200191505060405180910390fd5b610f9381611211565b50565b6000603a60008373ffffffffffffffffffffffffffffffffffffffff1673ffffffffffffffffffffffffffffffffffffffff16815260200190815260200160002060009054906101000a900460ff169050919050565b6000611048603960008473ffffffffffffffffffffffffffffffffffffffff1673ffffffffffffffffffffffffffffffffffffffff1681526020019081526020016000205461103a84611357565b6111a890919063ffffffff16565b9050919050565b6000808284019050838110156110cd576040517f08c379a000000000000000000000000000000000000000000000000000000000815260040180806020018281038252601b8152602001807f536166654d6174683a206164646974696f6e206f766572666c6f77000000000081525060200191505060405180910390fd5b8091505092915050565b6111a3838473ffffffffffffffffffffffffffffffffffffffff1663a9059cbb905060e01b8484604051602401808373ffffffffffffffffffffffffffffffffffffffff1673ffffffffffffffffffffffffffffffffffffffff16815260200182815260200192505050604051602081830303815290604052907bffffffffffffffffffffffffffffffffffffffffffffffffffffffff19166020820180517bffffffffffffffffffffffffffffffffffffffffffffffffffffffff8381831617835250505050611541565b505050565b60006111ea83836040518060400160405280601e81526020017f536166654d6174683a207375627472616374696f6e206f766572666c6f77000081525061178c565b905092915050565b600033905090565b6000803090506000813b9050600081149250505090565b600073ffffffffffffffffffffffffffffffffffffffff168173ffffffffffffffffffffffffffffffffffffffff161415611297576040517f08c379a0000000000000000000000000000000000000000000000000000000008152600401808060200182810382526026815260200180611a8a6026913960400191505060405180910390fd5b8073ffffffffffffffffffffffffffffffffffffffff16603360009054906101000a900473ffffffffffffffffffffffffffffffffffffffff1673ffffffffffffffffffffffffffffffffffffffff167f8be0079c531659141344cd1fd0a4f28419497f9722a3daafe3b4186f6b6457e060405160405180910390a380603360006101000a81548173ffffffffffffffffffffffffffffffffffffffff021916908373ffffffffffffffffffffffffffffffffffffffff16021790555050565b6000808273ffffffffffffffffffffffffffffffffffffffff166370a08231306040518263ffffffff1660e01b8152600401808273ffffffffffffffffffffffffffffffffffffffff1673ffffffffffffffffffffffffffffffffffffffff16815260200191505060206040518083038186803b1580156113d757600080fd5b505afa1580156113eb573d6000803e3d6000fd5b505050506040513d602081101561140157600080fd5b810190808051906020019092919050505090506000611468603960008673ffffffffffffffffffffffffffffffffffffffff1673ffffffffffffffffffffffffffffffffffffffff168152602001908152602001600020548361104f90919063ffffffff16565b905060355442101561147f5760009250505061153c565b61149660375460365461104f90919063ffffffff16565b421015806114ed5750603a60008573ffffffffffffffffffffffffffffffffffffffff1673ffffffffffffffffffffffffffffffffffffffff16815260200190815260200160002060009054906101000a900460ff165b156114fc57809250505061153c565b61153760375461152961151a603654426111a890919063ffffffff16565b8461184c90919063ffffffff16565b6118d290919063ffffffff16565b925050505b919050565b6115608273ffffffffffffffffffffffffffffffffffffffff1661191c565b6115d2576040517f08c379a000000000000000000000000000000000000000000000000000000000815260040180806020018281038252601f8152602001807f5361666545524332303a2063616c6c20746f206e6f6e2d636f6e74726163740081525060200191505060405180910390fd5b600060608373ffffffffffffffffffffffffffffffffffffffff16836040518082805190602001908083835b6020831061162157805182526020820191506020810190506020830392506115fe565b6001836020036101000a0380198251168184511680821785525050505050509050019150506000604051808303816000865af19150503d8060008114611683576040519150601f19603f3d011682016040523d82523d6000602084013e611688565b606091505b509150915081611700576040517f08c379a00000000000000000000000000000000000000000000000000000000081526004018080602001828103825260208152602001807f5361666545524332303a206c6f772d6c6576656c2063616c6c206661696c656481525060200191505060405180910390fd5b6000815111156117865780806020019051602081101561171f57600080fd5b8101908080519060200190929190505050611785576040517f08c379a000000000000000000000000000000000000000000000000000000000815260040180806020018281038252602a815260200180611b2a602a913960400191505060405180910390fd5b5b50505050565b6000838311158290611839576040517f08c379a00000000000000000000000000000000000000000000000000000000081526004018080602001828103825283818151815260200191508051906020019080838360005b838110156117fe5780820151818401526020810190506117e3565b50505050905090810190601f16801561182b5780820380516001836020036101000a031916815260200191505b509250505060405180910390fd5b5060008385039050809150509392505050565b60008083141561185f57600090506118cc565b600082840290508284828161187057fe5b04146118c7576040517f08c379a0000000000000000000000000000000000000000000000000000000008152600401808060200182810382526021815260200180611adb6021913960400191505060405180910390fd5b809150505b92915050565b600061191483836040518060400160405280601a81526020017f536166654d6174683a206469766973696f6e206279207a65726f000000000000815250611967565b905092915050565b60008060007fc5d2460186f7233c927e7db2dcc703c0e500b653ca82273b7bfad8045d85a47060001b9050833f915080821415801561195e57506000801b8214155b92505050919050565b60008083118290611a13576040517f08c379a00000000000000000000000000000000000000000000000000000000081526004018080602001828103825283818151815260200191508051906020019080838360005b838110156119d85780820151818401526020810190506119bd565b50505050905090810190601f168015611a055780820380516001836020036101000a031916815260200191505b509250505060405180910390fd5b506000838581611a1f57fe5b04905080915050939250505056fe546f6b656e56657374696e673a2066696e616c2074696d65206973206265666f72652063757272656e742074696d65546f6b656e56657374696e673a2062656e656669636961727920697320746865207a65726f20616464726573734f776e61626c653a206e6577206f776e657220697320746865207a65726f2061646472657373546f6b656e56657374696e673a20636c696666206973206c6f6e676572207468616e206475726174696f6e536166654d6174683a206d756c7469706c69636174696f6e206f766572666c6f77436f6e747261637420696e7374616e63652068617320616c7265616479206265656e20696e697469616c697a65645361666545524332303a204552433230206f7065726174696f6e20646964206e6f742073756363656564546f6b656e56657374696e673a20746f6b656e20616c7265616479207265766f6b6564a265627a7a72315820dbfe6f2582966b09f0da498a404e7f1ca3385e25096b5b8d133b249fc3ce9a3564736f6c63430005100032",
  "source": "\n// SPDX-License-Identifier: MIT\npragma solidity ^0.5.3;\n\nimport './SafeERC20.sol';\nimport './SafeMath.sol';\nimport './Ownable.sol';\nimport '@openzeppelin/upgrades/contracts/Initializable.sol';\n\ncontract Vesting is Initializable, Ownable {\n    // The vesting schedule is time-based (i.e. using block timestamps as opposed to e.g. block numbers), and is\n    // therefore sensitive to timestamp manipulation (which is something miners can do, to a certain degree). Therefore,\n    // it is recommended to avoid using short time durations (less than a minute). Typical vesting schemes, with a\n    // cliff period of a year and a duration of four years, are safe to use.\n    // solhint-disable not-rely-on-time\n\n    using SafeMath for uint256;\n    using SafeERC20 for IERC20;\n\n    event TokensReleased(address token, uint256 amount);\n    event TokenVestingRevoked(address token);\n\n    // beneficiary of tokens after they are released\n    address private _beneficiary;\n\n    // Durations and timestamps are expressed in UNIX time, the same units as block.timestamp.\n    uint256 private _cliff;\n    uint256 private _start;\n    uint256 private _duration;\n\n    bool private _revocable;\n\n    mapping (address => uint256) private _released;\n    mapping (address => bool) private _revoked;\n\n    /**\n     * @dev Creates a vesting contract that vests its balance of any ERC20 token to the\n     * beneficiary, gradually in a linear fashion until start + duration. By then all\n     * of the balance will have vested.\n     * @param beneficiary address of the beneficiary to whom vested tokens are transferred\n     * @param cliffDuration duration in seconds of the cliff in which tokens will begin to vest\n     * @param start the time (as Unix time) at which point vesting starts\n     * @param duration duration in seconds of the period in which the tokens will vest\n     * @param revocable whether the vesting is revocable or not\n     */\n\n    function initialize(address beneficiary, uint256 start, uint256 cliffDuration, uint256 duration, bool revocable) public initializer {\n        require(beneficiary != address(0), \"TokenVesting: beneficiary is the zero address\");\n        // solhint-disable-next-line max-line-length\n        require(cliffDuration <= duration, \"TokenVesting: cliff is longer than duration\");\n        require(duration > 0, \"TokenVesting: duration is 0\");\n        // solhint-disable-next-line max-line-length\n        require(start.add(duration) > block.timestamp, \"TokenVesting: final time is before current time\");\n\n        _beneficiary = beneficiary;\n        _revocable = revocable;\n        _duration = duration;\n        _cliff = start.add(cliffDuration);\n        _start = start;\n    }\n\n    /**\n     * @return the beneficiary of the tokens.\n     */\n    function beneficiary() public view returns (address) {\n        return _beneficiary;\n    }\n\n    /**\n     * @return the cliff time of the token vesting.\n     */\n    function cliff() public view returns (uint256) {\n        return _cliff;\n    }\n\n    /**\n     * @return the start time of the token vesting.\n     */\n    function start() public view returns (uint256) {\n        return _start;\n    }\n\n    /**\n     * @return the duration of the token vesting.\n     */\n    function duration() public view returns (uint256) {\n        return _duration;\n    }\n\n    /**\n     * @return true if the vesting is revocable.\n     */\n    function revocable() public view returns (bool) {\n        return _revocable;\n    }\n\n    /**\n     * @return the amount of the token released.\n     */\n    function released(address token) public view returns (uint256) {\n        return _released[token];\n    }\n\n    /**\n     * @return true if the token is revoked.\n     */\n    function revoked(address token) public view returns (bool) {\n        return _revoked[token];\n    }\n\n    /**\n     * @notice Transfers vested tokens to beneficiary.\n     * @param token ERC20 token which is being vested\n     */\n    function release(IERC20 token) public {\n        uint256 unreleased = _releasableAmount(token);\n\n        require(unreleased > 0, \"TokenVesting: no tokens are due\");\n\n        _released[address(token)] = _released[address(token)].add(unreleased);\n\n        token.safeTransfer(_beneficiary, unreleased);\n\n        emit TokensReleased(address(token), unreleased);\n    }\n\n    /**\n     * @notice Allows the owner to revoke the vesting. Tokens already vested\n     * remain in the contract, the rest are returned to the owner.\n     * @param token ERC20 token which is being vested\n     */\n    function revoke(IERC20 token) public onlyOwner {\n        require(_revocable, \"TokenVesting: cannot revoke\");\n        require(!_revoked[address(token)], \"TokenVesting: token already revoked\");\n\n        uint256 balance = token.balanceOf(address(this));\n\n        uint256 unreleased = _releasableAmount(token);\n        uint256 refund = balance.sub(unreleased);\n\n        _revoked[address(token)] = true;\n\n        token.safeTransfer(owner(), refund);\n\n        emit TokenVestingRevoked(address(token));\n    }\n\n    /**\n     * @dev Calculates the amount that has already vested but hasn't been released yet.\n     * @param token ERC20 token which is being vested\n     */\n    function _releasableAmount(IERC20 token) private view returns (uint256) {\n        return _vestedAmount(token).sub(_released[address(token)]);\n    }\n\n    /**\n     * @dev Calculates the amount that has already vested.\n     * @param token ERC20 token which is being vested\n     */\n    function _vestedAmount(IERC20 token) private view returns (uint256) {\n        uint256 currentBalance = token.balanceOf(address(this));\n        uint256 totalBalance = currentBalance.add(_released[address(token)]);\n\n        if (block.timestamp < _cliff) {\n            return 0;\n        } else if (block.timestamp >= _start.add(_duration) || _revoked[address(token)]) {\n            return totalBalance;\n        } else {\n            return totalBalance.mul(block.timestamp.sub(_start)).div(_duration);\n        }\n    }\n}",
  "sourcePath": "/Users/godambe/dhruv1584/finaxis/Vesting-schedule/contracts/Vesting.sol",
  "compiler": {
    "name": "solc",
    "version": "0.5.16+commit.9c3226ce.Emscripten.clang"
  },
  "schemaVersion": "3.3.4",
  "updatedAt": "2021-06-27T07:25:25.668Z",
  "devdoc": {
    "methods": {
      "beneficiary()": {
        "return": "the beneficiary of the tokens."
      },
      "cliff()": {
        "return": "the cliff time of the token vesting."
      },
      "duration()": {
        "return": "the duration of the token vesting."
      },
      "initialize(address,uint256,uint256,uint256,bool)": {
        "details": "Creates a vesting contract that vests its balance of any ERC20 token to the beneficiary, gradually in a linear fashion until start + duration. By then all of the balance will have vested.",
        "params": {
          "beneficiary": "address of the beneficiary to whom vested tokens are transferred",
          "cliffDuration": "duration in seconds of the cliff in which tokens will begin to vest",
          "duration": "duration in seconds of the period in which the tokens will vest",
          "revocable": "whether the vesting is revocable or not",
          "start": "the time (as Unix time) at which point vesting starts"
        }
      },
      "isOwner()": {
        "details": "Returns true if the caller is the current owner."
      },
      "owner()": {
        "details": "Returns the address of the current owner."
      },
      "release(address)": {
        "params": {
          "token": "ERC20 token which is being vested"
        }
      },
      "released(address)": {
        "return": "the amount of the token released."
      },
      "renounceOwnership()": {
        "details": "Leaves the contract without owner. It will not be possible to call `onlyOwner` functions anymore. Can only be called by the current owner.     * NOTE: Renouncing ownership will leave the contract without an owner, thereby removing any functionality that is only available to the owner."
      },
      "revocable()": {
        "return": "true if the vesting is revocable."
      },
      "revoke(address)": {
        "params": {
          "token": "ERC20 token which is being vested"
        }
      },
      "revoked(address)": {
        "return": "true if the token is revoked."
      },
      "start()": {
        "return": "the start time of the token vesting."
      },
      "transferOwnership(address)": {
        "details": "Transfers ownership of the contract to a new account (`newOwner`). Can only be called by the current owner."
      }
    }
  },
  "userdoc": {
    "methods": {
      "release(address)": {
        "notice": "Transfers vested tokens to beneficiary."
      },
      "revoke(address)": {
        "notice": "Allows the owner to revoke the vesting. Tokens already vested remain in the contract, the rest are returned to the owner."
      }
    }
  }
}