{
  "contractName": "Vesting2",
  "abi": [
    {
      "anonymous": false,
      "inputs": [
        {
          "indexed": false,
          "name": "amount",
          "type": "uint256"
        }
      ],
      "name": "TokenReleased",
      "type": "event"
    },
    {
      "constant": false,
      "inputs": [
        {
          "name": "beneficiary",
          "type": "address"
        },
        {
          "name": "start",
          "type": "uint256"
        },
        {
          "name": "intervalPeriod",
          "type": "uint256"
        },
        {
          "name": "duration",
          "type": "uint256"
        },
        {
          "name": "revocable",
          "type": "bool"
        }
      ],
      "name": "initialize",
      "outputs": [],
      "payable": false,
      "stateMutability": "nonpayable",
      "type": "function"
    },
    {
      "constant": true,
      "inputs": [],
      "name": "beneficiary",
      "outputs": [
        {
          "name": "",
          "type": "address"
        }
      ],
      "payable": false,
      "stateMutability": "view",
      "type": "function"
    },
    {
      "constant": true,
      "inputs": [],
      "name": "interval",
      "outputs": [
        {
          "name": "",
          "type": "uint256"
        }
      ],
      "payable": false,
      "stateMutability": "view",
      "type": "function"
    },
    {
      "constant": true,
      "inputs": [],
      "name": "start",
      "outputs": [
        {
          "name": "",
          "type": "uint256"
        }
      ],
      "payable": false,
      "stateMutability": "view",
      "type": "function"
    },
    {
      "constant": true,
      "inputs": [],
      "name": "duration",
      "outputs": [
        {
          "name": "",
          "type": "uint256"
        }
      ],
      "payable": false,
      "stateMutability": "view",
      "type": "function"
    },
    {
      "constant": true,
      "inputs": [],
      "name": "revocable",
      "outputs": [
        {
          "name": "",
          "type": "bool"
        }
      ],
      "payable": false,
      "stateMutability": "view",
      "type": "function"
    },
    {
      "constant": false,
      "inputs": [
        {
          "name": "token",
          "type": "address"
        }
      ],
      "name": "release",
      "outputs": [],
      "payable": false,
      "stateMutability": "nonpayable",
      "type": "function"
    }
  ],
  "bytecode": "0x6080604052600060055534801561001557600080fd5b50611321806100256000396000f3fe608060405234801561001057600080fd5b506004361061009a576000357c010000000000000000000000000000000000000000000000000000000090048063872a781011610078578063872a78101461014b578063947a36fb1461016d5780639a63adc01461018b578063be9a6555146101f95761009a565b80630fb5a6b41461009f57806319165587146100bd57806338af3eed14610101575b600080fd5b6100a7610217565b6040518082815260200191505060405180910390f35b6100ff600480360360208110156100d357600080fd5b81019080803573ffffffffffffffffffffffffffffffffffffffff169060200190929190505050610221565b005b610109610581565b604051808273ffffffffffffffffffffffffffffffffffffffff1673ffffffffffffffffffffffffffffffffffffffff16815260200191505060405180910390f35b6101536105aa565b604051808215151515815260200191505060405180910390f35b6101756105c1565b6040518082815260200191505060405180910390f35b6101f7600480360360a08110156101a157600080fd5b81019080803573ffffffffffffffffffffffffffffffffffffffff1690602001909291908035906020019092919080359060200190929190803590602001909291908035151590602001909291905050506105cb565b005b61020161098e565b6040518082815260200191505060405180910390f35b6000600354905090565b600460009054906101000a900460ff1615156102a5576040517f08c379a00000000000000000000000000000000000000000000000000000000081526004018080602001828103825260198152602001807f436f6e7472616374206973206e6f74207265766f6361626c650000000000000081525060200191505060405180910390fd5b60006102d06001546102c26002544261099890919063ffffffff16565b6109e290919063ffffffff16565b905060006102e96005548361099890919063ffffffff16565b905060018110151515610364576040517f08c379a00000000000000000000000000000000000000000000000000000000081526004018080602001828103825260168152602001807f546f6b656e7320617265206e6f7420647565207965740000000000000000000081525060200191505060405180910390fd5b6000808473ffffffffffffffffffffffffffffffffffffffff166370a08231306040518263ffffffff167c0100000000000000000000000000000000000000000000000000000000028152600401808273ffffffffffffffffffffffffffffffffffffffff1673ffffffffffffffffffffffffffffffffffffffff16815260200191505060206040518083038186803b15801561040057600080fd5b505afa158015610414573d6000803e3d6000fd5b505050506040513d602081101561042a57600080fd5b81019080805190602001909291905050509050600081111515610498576040517f08c379a000000000000000000000000000000000000000000000000000000000815260040180806020018281038252603b8152602001806111db603b913960400191505060405180910390fd5b600654841015156104c6578091506000600460006101000a81548160ff02191690831515021790555061050a565b60006104df60055460065461099890919063ffffffff16565b9050610506816104f88487610a2c90919063ffffffff16565b6109e290919063ffffffff16565b9250505b61053c610515610581565b838773ffffffffffffffffffffffffffffffffffffffff16610ab69092919063ffffffff16565b7f059ea9d6426bbae6ac9c53283977ee93577f8e299e1f7d7314b3d23eecfb2b08826040518082815260200191505060405180910390a1836005819055505050505050565b60008060029054906101000a900473ffffffffffffffffffffffffffffffffffffffff16905090565b6000600460009054906101000a900460ff16905090565b6000600154905090565b600060019054906101000a900460ff16806105ea57506105e9610ba3565b5b8061060157506000809054906101000a900460ff16155b1515610658576040517f08c379a000000000000000000000000000000000000000000000000000000000815260040180806020018281038252602e81526020018061129e602e913960400191505060405180910390fd5b60008060019054906101000a900460ff1615905080156106a8576001600060016101000a81548160ff02191690831515021790555060016000806101000a81548160ff0219169083151502179055505b600073ffffffffffffffffffffffffffffffffffffffff168673ffffffffffffffffffffffffffffffffffffffff1614151515610730576040517f08c379a000000000000000000000000000000000000000000000000000000000815260040180806020018281038252602d8152602001806111ae602d913960400191505060405180910390fd5b82841115151561078b576040517f08c379a000000000000000000000000000000000000000000000000000000000815260040180806020018281038252602e815260200180611270602e913960400191505060405180910390fd5b600083111515610803576040517f08c379a000000000000000000000000000000000000000000000000000000000815260040180806020018281038252601b8152602001807f546f6b656e56657374696e673a206475726174696f6e2069732030000000000081525060200191505060405180910390fd5b426108178487610bba90919063ffffffff16565b11151561086f576040517f08c379a000000000000000000000000000000000000000000000000000000000815260040180806020018281038252602f81526020018061117f602f913960400191505060405180910390fd5b60006108848585610c4490919063ffffffff16565b1415156108dc576040517f08c379a00000000000000000000000000000000000000000000000000000000081526004018080602001828103825260398152602001806112166039913960400191505060405180910390fd5b85600060026101000a81548173ffffffffffffffffffffffffffffffffffffffff021916908373ffffffffffffffffffffffffffffffffffffffff16021790555081600460006101000a81548160ff02191690831515021790555082600381905550836001819055508460028190555061095f84846109e290919063ffffffff16565b60068190555080156109865760008060016101000a81548160ff0219169083151502179055505b505050505050565b6000600254905090565b60006109da83836040805190810160405280601e81526020017f536166654d6174683a207375627472616374696f6e206f766572666c6f770000815250610c8e565b905092915050565b6000610a2483836040805190810160405280601a81526020017f536166654d6174683a206469766973696f6e206279207a65726f000000000000815250610d50565b905092915050565b600080831415610a3f5760009050610ab0565b60008284029050828482811515610a5257fe5b04141515610aab576040517f08c379a000000000000000000000000000000000000000000000000000000000815260040180806020018281038252602181526020018061124f6021913960400191505060405180910390fd5b809150505b92915050565b610b9e838473ffffffffffffffffffffffffffffffffffffffff1663a9059cbb90507c0100000000000000000000000000000000000000000000000000000000028484604051602401808373ffffffffffffffffffffffffffffffffffffffff1673ffffffffffffffffffffffffffffffffffffffff16815260200182815260200192505050604051602081830303815290604052907bffffffffffffffffffffffffffffffffffffffffffffffffffffffff19166020820180517bffffffffffffffffffffffffffffffffffffffffffffffffffffffff8381831617835250505050610e1a565b505050565b6000803090506000813b9050600081149250505090565b6000808284019050838110151515610c3a576040517f08c379a000000000000000000000000000000000000000000000000000000000815260040180806020018281038252601b8152602001807f536166654d6174683a206164646974696f6e206f766572666c6f77000000000081525060200191505060405180910390fd5b8091505092915050565b6000610c8683836040805190810160405280601881526020017f536166654d6174683a206d6f64756c6f206279207a65726f000000000000000081525061106d565b905092915050565b60008383111582901515610d3d576040517f08c379a00000000000000000000000000000000000000000000000000000000081526004018080602001828103825283818151815260200191508051906020019080838360005b83811015610d02578082015181840152602081019050610ce7565b50505050905090810190601f168015610d2f5780820380516001836020036101000a031916815260200191505b509250505060405180910390fd5b5060008385039050809150509392505050565b600080831182901515610dfe576040517f08c379a00000000000000000000000000000000000000000000000000000000081526004018080602001828103825283818151815260200191508051906020019080838360005b83811015610dc3578082015181840152602081019050610da8565b50505050905090810190601f168015610df05780820380516001836020036101000a031916815260200191505b509250505060405180910390fd5b5060008385811515610e0c57fe5b049050809150509392505050565b610e398273ffffffffffffffffffffffffffffffffffffffff16611132565b1515610ead576040517f08c379a000000000000000000000000000000000000000000000000000000000815260040180806020018281038252601f8152602001807f5361666545524332303a2063616c6c20746f206e6f6e2d636f6e74726163740081525060200191505060405180910390fd5b600060608373ffffffffffffffffffffffffffffffffffffffff16836040518082805190602001908083835b602083101515610efe5780518252602082019150602081019050602083039250610ed9565b6001836020036101000a0380198251168184511680821785525050505050509050019150506000604051808303816000865af19150503d8060008114610f60576040519150601f19603f3d011682016040523d82523d6000602084013e610f65565b606091505b5091509150811515610fdf576040517f08c379a00000000000000000000000000000000000000000000000000000000081526004018080602001828103825260208152602001807f5361666545524332303a206c6f772d6c6576656c2063616c6c206661696c656481525060200191505060405180910390fd5b60008151111561106757808060200190516020811015610ffe57600080fd5b81019080805190602001909291905050501515611066576040517f08c379a000000000000000000000000000000000000000000000000000000000815260040180806020018281038252602a8152602001806112cc602a913960400191505060405180910390fd5b5b50505050565b6000808314158290151561111c576040517f08c379a00000000000000000000000000000000000000000000000000000000081526004018080602001828103825283818151815260200191508051906020019080838360005b838110156110e15780820151818401526020810190506110c6565b50505050905090810190601f16801561110e5780820380516001836020036101000a031916815260200191505b509250505060405180910390fd5b50828481151561112857fe5b0690509392505050565b60008060007fc5d2460186f7233c927e7db2dcc703c0e500b653ca82273b7bfad8045d85a4706001029050833f9150808214158015611175575060006001028214155b9250505091905056fe546f6b656e56657374696e673a2066696e616c2074696d65206973206265666f72652063757272656e742074696d65546f6b656e56657374696e673a2062656e656669636961727920697320746865207a65726f20616464726573735468652062616c616e6365206f662070726f766964656420746f6b656e206164647265737320696e207468697320636f6e74726163742069732030746f74616c206475726174696f6e206973206e6f74206576656e6c7920646976697369626c6520627920696e74657276616c20706572696f64536166654d6174683a206d756c7469706c69636174696f6e206f766572666c6f77546f6b656e56657374696e673a20696e74657276616c206973206c6f6e676572207468616e206475726174696f6e436f6e747261637420696e7374616e63652068617320616c7265616479206265656e20696e697469616c697a65645361666545524332303a204552433230206f7065726174696f6e20646964206e6f742073756363656564a165627a7a72305820d0529f53b4dc01f4be970964a5f6b7060ea4af75ca0a4f11b26926229fceb49c0029",
  "source": "pragma solidity ^0.5.3;\n\nimport './SafeMath.sol';\nimport './Initializable.sol';\nimport './SafeERC20.sol';\n\ncontract Vesting2 is Initializable {\n    using SafeMath for uint256;\n    using SafeERC20 for IERC20;\n\n    address private _beneficiary;\n    uint256 private _intervalPeriod;\n    uint256 private _start;\n    uint256 private _duration;\n    bool private _revocable;\n\n    uint256 lastInterval = 0;\n    uint256 totalIntervals;\n    \n    event TokenReleased(uint256 amount);\n\n    function initialize(address beneficiary, uint256 start, uint256 intervalPeriod, uint256 duration, bool revocable) public initializer {\n        require(beneficiary != address(0), \"TokenVesting: beneficiary is the zero address\");\n        \n        require(intervalPeriod <= duration, \"TokenVesting: interval is longer than duration\");\n        require(duration > 0, \"TokenVesting: duration is 0\");\n        \n        require(start.add(duration) > block.timestamp, \"TokenVesting: final time is before current time\");\n\n        require(duration.mod(intervalPeriod) == 0, \"total duration is not evenly divisible by interval period\");\n\n        _beneficiary = beneficiary;\n        _revocable = revocable;\n        _duration = duration;\n        _intervalPeriod = intervalPeriod;\n        _start = start;\n        totalIntervals = duration.div(intervalPeriod);\n    }\n\n    function beneficiary() public view returns (address) {\n        return _beneficiary;\n    }\n\n    function interval() public view returns (uint256) {\n        return _intervalPeriod;\n    }\n\n    function start() public view returns (uint256) {\n        return _start;\n    }\n\n    function duration() public view returns (uint256) {\n        return _duration;\n    }\n\n    function revocable() public view returns (bool) {\n        return _revocable;\n    }\n\n    function release(IERC20 token) public {\n        require(_revocable, \"Contract is not revocable\");\n\n        uint256 currentInterval = (block.timestamp.sub(_start)).div(_intervalPeriod);\n        uint256 diff = currentInterval.sub(lastInterval);\n\n        require(diff >= 1, \"Tokens are not due yet\");\n\n        uint256 releasableAmount;\n        uint256 currentBalance = token.balanceOf(address(this));\n\n        require(currentBalance > 0, \"The balance of provided token address in this contract is 0\");\n\n        if(currentInterval >= totalIntervals){\n            releasableAmount = currentBalance;\n            _revocable = false;\n        } else {\n            uint256 denominator = totalIntervals.sub(lastInterval);\n            releasableAmount = (diff.mul(currentBalance)).div(denominator);\n        }\n\n        token.safeTransfer(beneficiary(), releasableAmount);\n        emit TokenReleased(releasableAmount);\n        \n        lastInterval = currentInterval;\n    }\n\n}",
  "sourcePath": "/Users/godambe/dhruv1584/finaxis/Vesting-schedule/contracts/Vesting2.sol",
  "compiler": {
    "name": "solc",
    "version": "0.5.3+commit.10d17f24.Emscripten.clang"
  },
  "schemaVersion": "3.3.4",
  "updatedAt": "2021-07-05T17:22:09.462Z",
  "networkType": "ethereum",
  "devdoc": {
    "methods": {}
  },
  "userdoc": {
    "methods": {}
  }
}