{
  "contractName": "Vesting2",
  "abi": [
    {
      "anonymous": false,
      "inputs": [
        {
          "indexed": false,
          "name": "currentInterval",
          "type": "uint256"
        },
        {
          "indexed": false,
          "name": "totalIntervals",
          "type": "uint256"
        },
        {
          "indexed": false,
          "name": "lastInterval",
          "type": "uint256"
        },
        {
          "indexed": false,
          "name": "currentBalance",
          "type": "uint256"
        },
        {
          "indexed": false,
          "name": "amount",
          "type": "uint256"
        }
      ],
      "name": "TokenReleased",
      "type": "event"
    },
    {
      "constant": false,
      "inputs": [
        {
          "name": "beneficiary",
          "type": "address"
        },
        {
          "name": "start",
          "type": "uint256"
        },
        {
          "name": "intervalPeriod",
          "type": "uint256"
        },
        {
          "name": "duration",
          "type": "uint256"
        },
        {
          "name": "revocable",
          "type": "bool"
        }
      ],
      "name": "initialize",
      "outputs": [],
      "payable": false,
      "stateMutability": "nonpayable",
      "type": "function"
    },
    {
      "constant": true,
      "inputs": [],
      "name": "beneficiary",
      "outputs": [
        {
          "name": "",
          "type": "address"
        }
      ],
      "payable": false,
      "stateMutability": "view",
      "type": "function"
    },
    {
      "constant": true,
      "inputs": [],
      "name": "interval",
      "outputs": [
        {
          "name": "",
          "type": "uint256"
        }
      ],
      "payable": false,
      "stateMutability": "view",
      "type": "function"
    },
    {
      "constant": true,
      "inputs": [],
      "name": "start",
      "outputs": [
        {
          "name": "",
          "type": "uint256"
        }
      ],
      "payable": false,
      "stateMutability": "view",
      "type": "function"
    },
    {
      "constant": true,
      "inputs": [],
      "name": "duration",
      "outputs": [
        {
          "name": "",
          "type": "uint256"
        }
      ],
      "payable": false,
      "stateMutability": "view",
      "type": "function"
    },
    {
      "constant": true,
      "inputs": [],
      "name": "revocable",
      "outputs": [
        {
          "name": "",
          "type": "bool"
        }
      ],
      "payable": false,
      "stateMutability": "view",
      "type": "function"
    },
    {
      "constant": false,
      "inputs": [
        {
          "name": "token",
          "type": "address"
        }
      ],
      "name": "release",
      "outputs": [],
      "payable": false,
      "stateMutability": "nonpayable",
      "type": "function"
    }
  ],
  "bytecode": "0x6080604052600060055534801561001557600080fd5b50610ad1806100256000396000f3fe608060405234801561001057600080fd5b506004361061009a576000357c010000000000000000000000000000000000000000000000000000000090048063872a781011610078578063872a78101461014b578063947a36fb1461016d5780639a63adc01461018b578063be9a6555146101f95761009a565b80630fb5a6b41461009f57806319165587146100bd57806338af3eed14610101575b600080fd5b6100a7610217565b6040518082815260200191505060405180910390f35b6100ff600480360360208110156100d357600080fd5b81019080803573ffffffffffffffffffffffffffffffffffffffff169060200190929190505050610221565b005b61010961050a565b604051808273ffffffffffffffffffffffffffffffffffffffff1673ffffffffffffffffffffffffffffffffffffffff16815260200191505060405180910390f35b610153610533565b604051808215151515815260200191505060405180910390f35b61017561054a565b6040518082815260200191505060405180910390f35b6101f7600480360360a08110156101a157600080fd5b81019080803573ffffffffffffffffffffffffffffffffffffffff169060200190929190803590602001909291908035906020019092919080359060200190929190803515159060200190929190505050610554565b005b610201610909565b6040518082815260200191505060405180910390f35b6000600354905090565b6000600154600254420381151561023457fe5b049050600060055482039050600181101515156102b9576040517f08c379a00000000000000000000000000000000000000000000000000000000081526004018080602001828103825260168152602001807f546f6b656e7320617265206e6f7420647565207965740000000000000000000081525060200191505060405180910390fd5b6000808473ffffffffffffffffffffffffffffffffffffffff166370a08231306040518263ffffffff167c0100000000000000000000000000000000000000000000000000000000028152600401808273ffffffffffffffffffffffffffffffffffffffff1673ffffffffffffffffffffffffffffffffffffffff16815260200191505060206040518083038186803b15801561035557600080fd5b505afa158015610369573d6000803e3d6000fd5b505050506040513d602081101561037f57600080fd5b810190808051906020019092919050505090506006548411156103a4578091506103bb565b600554600654038184028115156103b757fe5b0491505b8473ffffffffffffffffffffffffffffffffffffffff1663a9059cbb6103df61050a565b846040518363ffffffff167c0100000000000000000000000000000000000000000000000000000000028152600401808373ffffffffffffffffffffffffffffffffffffffff1673ffffffffffffffffffffffffffffffffffffffff16815260200182815260200192505050602060405180830381600087803b15801561046557600080fd5b505af1158015610479573d6000803e3d6000fd5b505050506040513d602081101561048f57600080fd5b8101908080519060200190929190505050507ff729fd26e0ffd28d82d9a35d48df38c604424619605e84947eb1a427e7076ce4846006546005548486604051808681526020018581526020018481526020018381526020018281526020019550505050505060405180910390a1836005819055505050505050565b60008060029054906101000a900473ffffffffffffffffffffffffffffffffffffffff16905090565b6000600460009054906101000a900460ff16905090565b6000600154905090565b600060019054906101000a900460ff16806105735750610572610913565b5b8061058a57506000809054906101000a900460ff16155b15156105e1576040517f08c379a000000000000000000000000000000000000000000000000000000000815260040180806020018281038252602e815260200180610a78602e913960400191505060405180910390fd5b60008060019054906101000a900460ff161590508015610631576001600060016101000a81548160ff02191690831515021790555060016000806101000a81548160ff0219169083151502179055505b600073ffffffffffffffffffffffffffffffffffffffff168673ffffffffffffffffffffffffffffffffffffffff16141515156106b9576040517f08c379a000000000000000000000000000000000000000000000000000000000815260040180806020018281038252602d8152602001806109e4602d913960400191505060405180910390fd5b828411151515610714576040517f08c379a000000000000000000000000000000000000000000000000000000000815260040180806020018281038252602e815260200180610a4a602e913960400191505060405180910390fd5b60008311151561078c576040517f08c379a000000000000000000000000000000000000000000000000000000000815260040180806020018281038252601b8152602001807f546f6b656e56657374696e673a206475726174696f6e2069732030000000000081525060200191505060405180910390fd5b426107a0848761092a90919063ffffffff16565b1115156107f8576040517f08c379a000000000000000000000000000000000000000000000000000000000815260040180806020018281038252602f8152602001806109b5602f913960400191505060405180910390fd5b6000848481151561080557fe5b0614151561085e576040517f08c379a0000000000000000000000000000000000000000000000000000000008152600401808060200182810382526039815260200180610a116039913960400191505060405180910390fd5b85600060026101000a81548173ffffffffffffffffffffffffffffffffffffffff021916908373ffffffffffffffffffffffffffffffffffffffff16021790555081600460006101000a81548160ff02191690831515021790555082600381905550836001819055508460028190555083838115156108d957fe5b0460068190555080156109015760008060016101000a81548160ff0219169083151502179055505b505050505050565b6000600254905090565b6000803090506000813b9050600081149250505090565b60008082840190508381101515156109aa576040517f08c379a000000000000000000000000000000000000000000000000000000000815260040180806020018281038252601b8152602001807f536166654d6174683a206164646974696f6e206f766572666c6f77000000000081525060200191505060405180910390fd5b809150509291505056fe546f6b656e56657374696e673a2066696e616c2074696d65206973206265666f72652063757272656e742074696d65546f6b656e56657374696e673a2062656e656669636961727920697320746865207a65726f2061646472657373746f74616c206475726174696f6e206973206e6f74206576656e6c7920646976697369626c6520627920696e74657276616c20706572696f64546f6b656e56657374696e673a20696e74657276616c206973206c6f6e676572207468616e206475726174696f6e436f6e747261637420696e7374616e63652068617320616c7265616479206265656e20696e697469616c697a6564a165627a7a72305820722e13f5c40d64929817eb4822a28863a5d2fa27fff5832cc447841f62f1dfe80029",
  "source": "pragma solidity ^0.5.3;\n\nimport './SafeMath.sol';\nimport './Initializable.sol';\nimport './IERC20.sol';\n\ncontract Vesting2 is Initializable {\n    using SafeMath for uint256;\n\n    address private _beneficiary;\n    // uint256 private _interval = 0;\n    uint256 private _intervalPeriod;\n    uint256 private _start;\n    uint256 private _duration;\n    bool private _revocable;\n\n    uint256 lastInterval = 0;\n    uint256 totalIntervals;\n    \n    event TokenReleased(uint256 currentInterval, uint256 totalIntervals,uint256 lastInterval,uint256 currentBalance, uint256 amount);\n\n    function initialize(address beneficiary, uint256 start, uint256 intervalPeriod, uint256 duration, bool revocable) public initializer {\n        require(beneficiary != address(0), \"TokenVesting: beneficiary is the zero address\");\n        \n        require(intervalPeriod <= duration, \"TokenVesting: interval is longer than duration\");\n        require(duration > 0, \"TokenVesting: duration is 0\");\n        \n        require(start.add(duration) > block.timestamp, \"TokenVesting: final time is before current time\");\n\n        require(duration % intervalPeriod == 0, \"total duration is not evenly divisible by interval period\");\n\n        _beneficiary = beneficiary;\n        _revocable = revocable;\n        _duration = duration;\n        _intervalPeriod = intervalPeriod;\n        _start = start;\n        totalIntervals = duration/intervalPeriod;\n    }\n\n    function beneficiary() public view returns (address) {\n        return _beneficiary;\n    }\n\n    function interval() public view returns (uint256) {\n        return _intervalPeriod;\n    }\n\n    function start() public view returns (uint256) {\n        return _start;\n    }\n\n    function duration() public view returns (uint256) {\n        return _duration;\n    }\n\n    function revocable() public view returns (bool) {\n        return _revocable;\n    }\n\n    function release(IERC20 token) public {\n        uint256 currentInterval = (block.timestamp - _start)/_intervalPeriod;\n        uint256 diff = currentInterval - lastInterval;\n\n        require(diff >= 1, \"Tokens are not due yet\");\n\n        uint256 releasableAmount;\n        uint256 currentBalance = token.balanceOf(address(this));\n        \n        if(currentInterval > totalIntervals){\n            releasableAmount = currentBalance;\n        } else {\n            releasableAmount = (diff*currentBalance)/(totalIntervals - lastInterval);\n        }\n\n        token.transfer(beneficiary(), releasableAmount);\n        emit TokenReleased(currentInterval, totalIntervals, lastInterval, currentBalance, releasableAmount);\n        \n        lastInterval = currentInterval;\n    }\n\n}",
  "sourcePath": "/Users/godambe/dhruv1584/finaxis/Vesting-schedule/contracts/Vesting2.sol",
  "compiler": {
    "name": "solc",
    "version": "0.5.3+commit.10d17f24.Emscripten.clang"
  },
  "schemaVersion": "3.3.4",
  "updatedAt": "2021-07-02T20:01:48.155Z",
  "networkType": "ethereum",
  "devdoc": {
    "methods": {}
  },
  "userdoc": {
    "methods": {}
  }
}